:0400000080318B2898
:100008007E14803120007F08FB00911E8628230083
:100018009D1C25281D121D164530FA007A0820005F
:10002800E5005230FA007A08E6004F30FA007A0804
:10003800E7005630FA007A08E80065308731CB27A8
:10004800803123001908FA0070084E3E86000130FE
:1000580087007A08810070084E3E860001308700CC
:100068000108FA007008A03E860087017A0881001E
:100078007008A03E8600870101089A0052302100CE
:100088002006031D6D280130F0070030F13D71088E
:10009800803AFA0080307A02031D54281F3070021B
:1000A800031C862801302100DE000030DF004F30BD
:1000B800FA007A082000E5004B30FA007A08E600DA
:1000C80065308731CB278031F001F1012000911292
:1000D800862823001D121D16F001F1014530FA0093
:1000E8007A082000E5005230FA007A08E60052301B
:1000F800FA007A08E7005830FA007A08E800653014
:100108008731CB277B082000FF007E100900803153
:100118008D28AB3084008F30850063308600003036
:1001280087000A308731FA278031203084008630F2
:100138008500A0308600003087003A308731FA27E2
:100148008031C43084008F3085004E308600013005
:10015800870012308731FA278031F001F101F2016E
:10016800F301F401F50152308400003085001130AC
:100178008F319E278031DA308400003085000830C6
:100188008F319E27803120308400013085002E3049
:100198008F319E277E1020008331C02B2000C300A2
:1001A800C401C501C601C701B701B801B901BA0147
:1001B800BB01BC01BE01BF01C001C1013030B600A6
:1001C8003608C2003030B6003608BD000C30A0003A
:1001D8009030A10086319F2680312000C801C901D6
:1001E800C801C9014908803AB60080303602031DAB
:1001F800FF280330480203182029200043088600FE
:1002080087010108B6004808D53E860087013608F0
:1002180081000130B6003608C3070130C807003036
:10022800C93D4908803AB60080303602031D1E29B0
:1002380003304802031C0129D5302000B6003608D7
:10024800A00020308731B027803117302000A0006F
:100258009030A100203086315A2680312000C80114
:10026800C901C801C9014908803AB6008030360280
:10027800031D4029023048020318612920002E0876
:10028800860087010108B6004808D83E8600870125
:10029800360881000130B6003608AE070130C807BD
:1002A8000030C93D4908803AB60080303602031D47
:1002B8005F2902304802031C4229D8302000A000E0
:1002C8000030A100203086315A26803117302000B6
:1002D800A0009030A100203086315A2680310030AD
:1002E8002000A0009030A100203086315A268031AD
:1002F80017302000A0009030A100203086315A2607
:1003080080312000C801C901C801C9014908803AE3
:10031800B60080303602031D9329013048020318C5
:10032800B42920003008860087010108B600480873
:100338006C3E86008701360881000130B600360819
:10034800B0070130C8070030C93D4908803AB600F7
:1003580080303602031DB22901304802031C95295A
:100368006C302000A0000030A100203086315A26D1
:10037800803117302000A0009030A1002030863155
:100388005A2680312000C801C901C801C90149089D
:10039800803AB60080303602031DD4290330480263
:1003A8000318F52920003108860087010108B600E6
:1003B8004808D23E86008701360881000130B60021
:1003C8003608B1070130C8070030C93D4908803AEE
:1003D800B60080303602031DF32903304802031C9F
:1003E800D629D2302000A0000030A100203086316C
:1003F8005A26803117302000A0009030A10020300C
:1004080086315A2680312000C801C901C801C901B6
:100418004908803AB60080303602031D152A033099
:1004280048020318362A200032088600870101088E
:10043800B6004808CF3E86008701360881000130A3
:10044800B6003608B2070130C8070030C93D490870
:10045800803AB60080303602031D342A0330480241
:10046800031C172ACF302000A0000030A100203044
:1004780086315A26803117302000A0009030A10024
:10048800203086315A2680312000C801C901C801B0
:10049800C9014908803AB60080303602031D562A41
:1004A800033048020318752A21004C082000B600C2
:1004B8004808CC3E86008701360881000130B60026
:1004C8003608B3070130C8070030C93D4908803AEB
:1004D800B60080303602031D732A03304802031C1D
:1004E800582ACC302000A0000030A10020308631EE
:1004F8005A26803117302000A0009030A10020300B
:1005080086315A2680312000C801C901C801C901B5
:100518004908803AB60080303602031D952A01301A
:1005280048020318B62A200034088600870101080B
:10053800B60048086B3E8600870136088100013006
:10054800B6003608B4070130C8070030C93D49086D
:10055800803AB60080303602031DB42A01304802C2
:10056800031C972A6B302000A0000030A100203027
:1005780086315A26803117302000A0009030A10023
:10058800203086315A2680312000C801C901C801AF
:10059800C9014908803AB60080303602031DD62AC0
:1005A800013048020318F72A200035088600870121
:1005B8000108B60048086A3E8600870136088100AF
:1005C8000130B6003608B5070130C8070030C93D0C
:1005D8004908803AB60080303602031DF52A0130FA
:1005E8004802031CD82A6A302000A0000030A1006D
:1005F800203086315A26803117302000A0009030F4
:10060800A100203086315A268031F1302000A00028
:100618008630A100203086315A26803120002E08ED
:100628008531B525803120002708C5002608C4007B
:1006380030088531B525803120002708C7002608F5
:10064800C60031088531B525803120002708B8005B
:100658002608B70032088531B525803120002708E3
:10066800BC002608BB0032088531B5258031200042
:100678002708BA002608B90034088531B525803125
:1006880020002708BF002608BE0035088531B5259B
:10069800803120002708C1002608C0003E08303EEF
:1006A800B6003608C2004608303EB6003608BD001F
:1006B8001030A0009030A10086319F268031313063
:1006C80023009A0020004208B6004408C73E86006E
:1006D8008701360881004408C73E86008701010863
:1006E800B6004408C23E86008701360881004003F0
:1006F8004104031DAB2B2030A0000130A10086313E
:100708009F268031AB2B2000460C2500031C8C1043
:1007180003188C1414302000A0009030A1008631FA
:100728009F2608002000460C2500031C0C10031807
:100738000C1408002000460C031C8C1103188C159F
:100748000800460C031C0C1103180C1508002000A7
:100758004508003A0319B12BBF2B4408013A031985
:10076800872B033A0319962B013A03199E2B073A54
:100778000319A52BBF2B080029302000CB00963089
:10078800CA007F30890BC62BCA0BC62BCB0BC62BD6
:1007980001302000D8000030D9000130D6000030E8
:1007A800D7000130D4000030D5000130D20000302D
:1007B800D30001302100E0000030E10025008C105A
:1007C8000C1020008C110C118F31EB2783318F31E5
:1007D8009B27833121005E035F04031D982C4D3055
:1007E8002000CA004A08E5004130CA004A08E6006D
:1007F8004930CA004A08E7004E30CA004A08E800F3
:100808006530A0000030A1008631822683312100A6
:10081800DE01DF0152302006031D5C2C4730210623
:10082800031D5C2C42302206031D5C2C4130270638
:10083800031D5C2C43302806031D5C2C543029060C
:10084800031D5C2C31303B06031D5C2C7C303D06BF
:10085800031D5C2C14302000A0009030A1008631CC
:100868008226833120006108CA004A08AE00600869
:10087800CB004B08AF005F08CC004C08B0005E0806
:10088800CD004D08B1005D08CE004E08B2005C08EE
:10089800CF004F08B3005B08D0005008B4005A08D6
:1008A800D1005108B50062088031D2208331982CDC
:1008B80007302000A0009030A100863182268331C5
:1008C80023009D131D122100E201E3016308803A11
:1008D8002000CA0080304A02031D752C1D302100FB
:1008E80062020318952C23302000CA0021006208F8
:1008F8004E3E86000130870020004A088100013002
:100908002100E2070030E33D6308803A2000CA0076
:1009180080304A02031D932C1D3021006202031C03
:10092800772C23001D169D1701302100E4000030AC
:10093800E50030304806031DC02C25008C1BC02C58
:10094800200058085904031DC02C210064036504C5
:10095800031DB82CD8302000A0008630A1008631B5
:100968009F26833125008C102100E401E501013028
:100978002000D8000030D900303021004806031D7F
:10098800E22C25008C1FE22C200058035904031D7B
:10099800E22C210064036504031DDC2C4430200094
:1009A800A0008730A10086319F26833125008C1452
:1009B8002100E401E5012000D801D90130302100EF
:1009C8004906031D062D25008C1A062D2000560801
:1009D8005704031D062D210064036504031DFE2C26
:1009E80095302000A0008730A10086319F268331F2
:1009F80025000C102100E401E50101302000D6009B
:100A08000030D700303021004906031D282D25006D
:100A18008C1E282D200056035704031D282D210065
:100A280064036504031D222DF3302000A0008630E6
:100A3800A10086319F26833125000C142100E40192
:100A4800E5012000D601D701303021004A06031DF8
:100A58004C2D25008C194C2D200054085504031DDD
:100A68004C2D210064036504031D442D0E30200025
:100A7800A0008730A10086319F26833120008C1189
:100A88002100E401E50101302000D4000030D50048
:100A9800303021004A06031D6E2D25008C1D6E2D59
:100AA800200054035504031D6E2D210064036504C2
:100AB800031D682D5F302000A0008730A10086311B
:100AC8009F26833120008C152100E401E5012000D8
:100AD800D401D501303021004B06031D922D25008D
:100AE8000C19922D200052085304031D922D210049
:100AF80064036504031D8A2D29302000A000873077
:100B0800A10086319F26833120000C112100E401C9
:100B1800E50101302000D2000030D3003030210040
:100B28004B06031DEE2B25000C1DEE2B2000520357
:100B38005304031DEE2B210064036504031DAE2D31
:100B48007A302000A0008730A10086319F268331AB
:100B580020000C152100E401E5012000D201D30199
:100B6800EE2B2000AD002D088600870120300106FD
:100B7800031DC32D0130A8002808AD07B72D2D0887
:100B880086008701093001060319BE2DAB01AC01AF
:100B9800AA012D08860087012D300106031DD92DD5
:100BA8000130A8002808AA07E02D2D088600870133
:100BB8002B300106031DE42D0130A8002808AD07DD
:100BC8002D088600870101088F31B5278531031C60
:100BD8000B2E20002C08A1002B08A0000A30A20030
:100BE8000030A3008631BC26853120002D08860000
:100BF800870101082007A80021080318210AA90075
:100C08002808D03EAB00FF30293DAC00E02D200085
:100C18002A0803191B2E2B09A8002C09A900A80AC9
:100C28000319A90A2808A6002908A70008002C0803
:100C3800A7002B08A6000800233400340034003431
:100C480000340034003400340034003400340034FC
:100C580000340034003400340034003423340034C9
:100C680000340034003400340034003400340034DC
:100C78002334003400340034003400343034303449
:100C8800303430340034303430343034303400349C
:100C98002334003400342334003400342334003443
:100CA8000034233400340034233400342000A400FA
:100CB8002408A2002208A300230886000130870028
:100CC80001080319742E0130A2002208A307602E20
:100CD8000130A2002208A3070130A0070030A13D7F
:100CE8002308860001308700200884002108850039
:100CF8000008C03F8908031908006C2E2000A201D3
:100D0800A3012E30220623040319080023009E1C89
:100D18008A2E20002008840021088500000823006E
:100D28009A0001302000A0070030A13D0130A20741
:100D38000030A33D852E2000A201A3012E302206FB
:100D480023040319080023009E1CA72E2000200856
:100D5800840021088500000823009A000130200043
:100D6800A0070030A13D0130A2070030A33DA22E0C
:100D78002000A401A501201CC52E2208A4072308D1
:100D8800A53D0130A235A30D890BC62E0130A13631
:100D9800A00C890BCB2E20082104031DBF2E25088B
:100DA800A1002408A0000800533457342E343034EE
:100DB80031342E34413443345434413443344B3485
:100DC8002E3430342E3430342E3430342E34303403
:100DD8002E3430342E3431342E347C3400345334B1
:100DE80057342E34303432342E344134433454346E
:100DF800413443344B342E3430342E3430342E3492
:100E080030342E3430342E3430342E3431342E34C1
:100E18007C340034533457342E34303433342E3445
:100E2800413443345434413443344B342E34303415
:100E38002E3430342E3430342E3430342E34303492
:100E48002E3431342E347C340034533457342E3419
:100E5800303434342E3441344334543441344334FC
:100E68004B342E3430342E3430342E3430342E3447
:100E780030342E3430342E3431342E347C34003433
:100E8800533457342E34303431342E3441344334CF
:100E98005434413443344B342E3431342E343034CA
:100EA8002E3430342E3430342E3430342E34313421
:100EB8002E347C340034533457342E3430343334A5
:100EC8002E34413443345434413443344B342E3477
:100ED80031342E3430342E3430342E3430342E34F1
:100EE80030342E3431342E347C3400345334573477
:100EF8002E34303434342E34413443345434413471
:100F080043344B342E3431342E3430342E34303490
:100F18002E3430342E3430342E3431342E347C3464
:100F28000034533457342E34303431342E34413471
:100F380043345434413443344B342E3432342E3415
:100F480030342E3430342E3430342E3430342E3481
:100F580031342E347C3400342000A2002208A10051
:100F68002108A30023088600013087002008840098
:100F780085010008C03F8908031908000130A10055
:100F88002108A3070130A1002108A007B62FF90006
:100F9800F701F801043077067804031908002300E4
:100FA8009E1CD32F79088600870101089A0001301A
:100FB800F6007608F9070130F7070030F83DCE2F24
:100FC8002100911211120A3023009F0090309D00D9
:100FD80024309E00A0309B0001309C008B170B171B
:100FE8002100911623009E169D170800FE0012008E
:080FF8001E00FE0BFB2F00346C
:101F36008731E4270800640080010131890B9F2F57
:101F4600003425008C100C1020008C110C11080098
:101F560030343034233423342334233400342334CC
:101F6600233423342000A100A0013A3021020318B3
:101F7600C22F30302102031CC22FA001A00A200C60
:101F860008002334003400340034003400340034B4
:101F9600003400340034003400340034003400349B
:101FA60000340034003428008D0129008D012800FA
:101FB6008C01230090012400900123008F0124004E
:101FC6008F0123008D0124008D0123008C01080060
:101FD6008F31A4278F318F31D6278F3126008C176A
:101FE6008C168C150C158C100C1021008C110C11F4
:101FF6000E138E178F31A42708004134433454340E
:10200600413443344B340034463452344C34533424
:10201600003441345034503400345334543453343F
:0C20260000344F344B3400342E340034AE
:020000040001F9
:04000E00A2C9FFDDA7
:00000001FF
