:0400000080318F2894
:100008007E14803120007F08FB00911E8A2823007F
:100018009D1C28281D121D164530FA007A0821005B
:10002800CC005230FA007A08CD004F30FA007A0836
:10003800CE005630FA007A08CF00CC30F6000030F7
:10004800F7008731B627803123001908FA007008B5
:100058004E3E8600013087007A08810070084E3EC7
:100068008600013087000108FA007008A03E86006B
:1000780087017A0881007008A03E86008701010880
:100088009A0053302100200603194E2852302006CA
:10009800031D6E280130F0070030F13D7108803AE9
:1000A800FA0080307A02031D5B281F307002031C9F
:1000B8008A2801302000D2000030D3001030F6002A
:1000C8009030F7008731B6278031F001F101200028
:1000D80091128A2823001D121D16F001F1014530E6
:1000E800FA007A082100CC005230FA007A08CD00D4
:1000F8005230FA007A08CE005830FA007A08CF0059
:10010800CC30F6000030F7008731B6277B08200096
:10011800FF007E10090080319128C33084008F30A1
:100128008500673086000030870007308731FA275E
:1001380080310830840086308500A0308600003089
:1001480087003D308731FA278031D93084008F30DD
:1001580085004E3086000130870012308731FA273B
:100168008031F001F101F201F301F401F50152309F
:1001780084000030850015308F31B627803121008A
:10018800DD01DE01DF01E00120308400013085005F
:100198002E308F31B6277E1020008331C12B2000EE
:1001A800C300C401C501C601C701B701B801B9013F
:1001B800BA01BB01BC01BE01BF01C001C1013030A1
:1001C800B6003608C2003030B6003608BD000C3024
:1001D800A0009030A10086318A2680312000C80115
:1001E800C901C801C9014908803AB6008030360201
:1001F800031D002903304802031821292000430861
:10020800860087010108B6004808DA3E86008701A3
:10021800360881000130B6003608C3070130C80728
:100228000030C93D4908803AB60080303602031DC7
:100238001F2903304802031C0229DA302000B600C7
:100248003608A000203087319B2780311B302000E2
:10025800A0009030A1002030863145268031200052
:10026800C801C901C801C9014908803AB6008030EF
:100278003602031D41290230480203186229200072
:100288002E08860087010108B6004808693E8600E6
:100298008701360881000130B6003608AE07013004
:1002A800C8070030C93D4908803AB6008030360298
:1002B800031D602902304802031C432969302000CD
:1002C800A0000030A10020308631452680311B3047
:1002D8002000A0009030A1002030863145268031D2
:1002E80000302000A0009030A10020308631452643
:1002F80080311B302000A0009030A10020308631D2
:10030800452680312000C801C901C801C901490832
:10031800803AB60080303602031D94290130480225
:100328000318B52920003008860087010108B600A7
:1003380048086D3E86008701360881000130B60006
:100348003608B0070130C8070030C93D4908803A6F
:10035800B60080303602031DB32901304802031C61
:1003680096296D302000A0000030A1002030863191
:10037800452680311B302000A0009030A10020309D
:100388008631452680312000C801C901C801C9014C
:100398004908803AB60080303602031DD52903305B
:1003A80048020318F6292000310886008701010851
:1003B800B6004808D73E860087013608810001301C
:1003C800B6003608B1070130C8070030C93D4908F2
:1003D800803AB60080303602031DF4290330480203
:1003E800031CD729D7302000A0000030A1002030FE
:1003F8008631452680311B302000A0009030A100B6
:1004080020308631452680312000C801C901C80145
:10041800C9014908803AB60080303602031D162A01
:10042800033048020318372A200032088600870163
:100438000108B6004808D43E8600870136088100C6
:100448000130B6003608B2070130C8070030C93D90
:100458004908803AB60080303602031D352A033039
:100468004802031C182AD4302000A0000030A10044
:1004780020308631452680311B302000A000903086
:10048800A10020308631452680312000C801C901ED
:10049800C801C9014908803AB60080303602031DF8
:1004A800572A033048020318762A210051082000F1
:1004B800B6004808D13E8600870136088100013021
:1004C800B6003608B3070130C8070030C93D4908EF
:1004D800803AB60080303602031D742A0330480281
:1004E800031C592AD1302000A0000030A100203080
:1004F8008631452680311B302000A0009030A100B5
:1005080020308631452680312000C801C901C80144
:10051800C9014908803AB60080303602031D962A80
:10052800013048020318B72A2000340886008701E2
:100538000108B60048086C3E86008701360881002D
:100548000130B6003608B4070130C8070030C93D8D
:100558004908803AB60080303602031DB52A0130BA
:100568004802031C982A6C302000A0000030A1002B
:1005780020308631452680311B302000A000903085
:10058800A10020308631452680312000C801C901EC
:10059800C801C9014908803AB60080303602031DF7
:1005A800D72A013048020318F82A200035088600A7
:1005B80087010108B60048086B3E860087013608A7
:1005C80081000130B6003608B5070130C807003091
:1005D800C93D4908803AB60080303602031DF62A24
:1005E80001304802031CD92A6B302000A0000030DB
:1005F800A10020308631452680311B302000A00024
:100608009030A1002030863145268031DC30200032
:10061800A0008630A1002030863145268031200098
:100628002E0885319D25803120002708C500260821
:10063800C400300885319D25803120002708C70077
:100648002608C600310885319D25803120002708FD
:10065800B8002608B700320885319D258031200072
:100668002708BC002608BB00320885319D2580314B
:1006780020002708BA002608B900340885319D25CE
:10068800803120002708BF002608BE0035088531C4
:100698009D25803120002708C1002608C0003E089B
:1006A800303EB6003608C2004608303EB60036086E
:1006B800BD001430A0009030A10086318A26803118
:1006C800313023009A0020004208B6004408C73E93
:1006D80086008701360881004408C73E86008701E6
:1006E8000108B6004408C23E86008701360881002A
:1006F80040034104031DAC2B2030A0000130A100B1
:1007080086318A268031AC2B2000460C2500031C3C
:100718008C1003188C1418302000A0009030A10011
:1007280086318A2608002000460C2500031C0C1080
:1007380003180C1408002000460C031C8C11031825
:100748008C150800460C031C0C1103180C15080026
:1007580020004508003A0319B22BC02B4408013A7F
:100768000319882B033A0319972B013A03199F2B76
:10077800073A0319A62BC02B080029302000CB000C
:100788009630CA007F30890BC72BCA0BC72BCB0BFF
:10079800C72B01302000DC000030DD000130DA001A
:1007A8000030DB000130D8000030D9000130D6001D
:1007B8000030D7000130D4000030D50025008C105F
:1007C8000C1020008C110C118731E52783318F31F3
:1007D800B3278331200052035304031D802CD20118
:1007E800D301523021002006031D442C4730210636
:1007F800031D442C42302206031D442C4130270699
:10080800031D442C43302806031D442C543029066C
:10081800031D442C31303B06031D442C7C303D061F
:10082800031D442C18302000A0009030A100863110
:100838006D26833120006508CA004A08AE006408A6
:10084800CB004B08AF006308CC004C08B00062082E
:10085800CD004D08B1006108CE004E08B200600816
:10086800CF004F08B3005F08D0005008B4005E08FE
:10087800D1005108B50066088031D3208331802C1F
:1008880007302000A0009030A10086316D2683310A
:1008980023009D131D122100E101E2016208803A44
:1008A8002000CA0080304A02031D5D2C1D30210043
:1008B800610203187D2C23302000CA002100610842
:1008C8004E3E86000130870020004A088100013032
:1008D8002100E1070030E23D6208803A2000CA00AA
:1008E80080304A02031D7B2C1D3021006102031C4D
:1008F8005F2C23001D169D1701302100E3000030F6
:10090800E40030304806031DA82C25008C1BA82CB9
:1009180020005C085D04031DA82C21006303640407
:10092800031DA02CC3302000A0008630A100863112
:100938008A26833125008C102100E301E40101306F
:100948002000DC000030DD00303021004806031DA7
:10095800CA2C25008C1FCA2C20005C035D04031DD3
:10096800CA2C210063036404031DC42C2F3020000B
:10097800A0008730A10086318A26833125008C1497
:100988002100E301E4012000DC01DD013030210019
:100998004906031DEE2C25008C1AEE2C20005A085F
:1009A8005B04031DEE2C210063036404031DE62C85
:1009B80080302000A0008730A10086318A2683314C
:1009C80025000C102100E301E40101302000DA00C9
:1009D8000030DB00303021004906031D102D2500B2
:1009E8008C1E102D20005A035B04031D102D2100BE
:1009F80063036404031D0A2DDE302000A000863046
:100A0800A10086318A26833125000C142100E301D8
:100A1800E4012000DA01DB01303021004A06031D21
:100A2800342D25008C19342D200058085904031D35
:100A3800342D210063036404031D2C2DF93020009C
:100A4800A0008630A10086318A26833120008C11CF
:100A58002100E301E40101302000D8000030D90072
:100A6800303021004A06031D562D25008C1D562DB9
:100A7800200058035904031D562D21006303640404
:100A8800031D502D4A302000A0008730A100863178
:100A98008A26833120008C152100E301E40120001F
:100AA800D801D901303021004B06031D7A2D2500CD
:100AB8000C197A2D200056085704031D7A2D2100A1
:100AC80063036404031D722D14302000A0008730D6
:100AD800A10086318A26833120000C112100E30110
:100AE800E40101302000D6000030D700303021006A
:100AF8004B06031DEE2B25000C1DEE2B2000560384
:100B08005704031DEE2B210063036404031D962D77
:100B180065302000A0008730A10086318A26833105
:100B280020000C152100E301E4012000D601D701C3
:100B3800EE2B2000AD002D0886008701203001062D
:100B4800031DAB2D0130A8002808AD079F2D2D08E7
:100B580086008701093001060319A62DAB01AC01F7
:100B6800AA012D08860087012D300106031DC12D1D
:100B78000130A8002808AA07C82D2D08860087017B
:100B88002B300106031DCC2D0130A8002808AD0725
:100B98002D088600870101088F31CA278531031C7B
:100BA800F32D20002C08A1002B08A0000A30A20079
:100BB8000030A3008631A726853120002D08860045
:100BC800870101082007A80021080318210AA900A5
:100BD8002808D03EAB00FF30293DAC00C82D2000CE
:100BE8002A080319032E2B09A8002C09A900A80A12
:100BF8000319A90A2808A6002908A70008002C0834
:100C0800A7002B08A6000800233400340034003461
:100C1800003400340034003400340034003400342C
:100C280000340034003400340034003423340034F9
:100C3800003400340034003400340034003400340C
:100C48002334003400340034003400343034303479
:100C580030343034003430343034303430340034CC
:100C6800233423342334233400342334003400342D
:100C78002334003400342334003400342334003463
:100C880000342000A4002408A2002208A30023089E
:100C9800860001308700010803195F2E0130A20089
:100CA8002208A3074B2E0130A2002208A307013017
:100CB800A0070030A13D23088600013087002008E6
:100CC8008400210885000008C03F8908031908002E
:100CD800572E2000A201A3012E3022062304031957
:100CE800080023009E1C752E20002008840021087F
:100CF8008500000823009A0001302000A00700307A
:100D0800A13D0130A2070030A33D702E2000A201B2
:100D1800A3012E30220623040319080023009E1C79
:100D2800922E200020088400210885000008230056
:100D38009A0001302000A0070030A13D0130A20731
:100D48000030A33D8D2E2000A401A501201CB02E4B
:100D58002208A4072308A53D0130A235A30D890B5D
:100D6800B12E0130A136A00C890BB62E2008210423
:100D7800031DAA2E2508A1002408A000080053344A
:100D880057342E34303431342E34413443345434CF
:100D9800413443344B342E3430342E3430342E34F2
:100DA80030342E3430342E3430342E3431342E3422
:100DB8007C340034533457342E34303432342E34A7
:100DC800413443345434413443344B342E34303476
:100DD8002E3430342E3430342E3430342E343034F3
:100DE8002E3431342E347C340034533457342E347A
:100DF800303433342E34413443345434413443345E
:100E08004B342E3430342E3430342E3430342E34A7
:100E180030342E3430342E3431342E347C34003493
:100E2800533457342E34303434342E34413443342C
:100E38005434413443344B342E3430342E3430342B
:100E48002E3430342E3430342E3430342E34313481
:100E58002E347C340034533457342E343034313407
:100E68002E34413443345434413443344B342E34D7
:100E780031342E3430342E3430342E3430342E3451
:100E880030342E3431342E347C34003453345734D7
:100E98002E34303433342E344134433454344134D2
:100EA80043344B342E3431342E3430342E343034F1
:100EB8002E3430342E3430342E3431342E347C34C5
:100EC8000034533457342E34303434342E344134CF
:100ED80043345434413443344B342E3431342E3477
:100EE80030342E3430342E3430342E3430342E34E2
:100EF80031342E347C340034533457342E34303467
:100F080031342E34413443345434413443344B3433
:100F18002E3432342E3430342E3430342E343034AF
:100F28002E3430342E3431342E347C3400342000C6
:100F3800A2002208A1002108A3002308860001308E
:100F480087002008840085010008C03F890803192C
:100F580008000130A1002108A3070130A1002108E1
:100F6800A007A12FF801F9010430780679040319C4
:100F7800080023009E1CBD2F760884007708850092
:100F880000089A000130F6070030F73D0130F807F5
:100F98000030F93DB82F2100911211120A302300B8
:100FA8009F0090309D0024309E00A0309B000130AF
:100FB8009C008B170B172100911623009E169D1776
:100FC80008008F31BC2787318F31EB278731260006
:100FD8008C178C168C150C158C100C1021008C118C
:100FE8000C110E138E178F31BC270800FE0012005B
:080FF8001E00FE0BFB2F00346C
:101F66008731CF270800640080010131890BB72F24
:101F7600003425008C100C1020008C110C11080068
:101F860030343034233400342334233423342000D3
:101F9600A100A0013A3021020318D72F30302102C8
:101FA600031CD72FA001A00A200C080023340034FC
:101FB600003400340034003400340034003400347B
:101FC600003400340034003400340034003400346B
:101FD60028008D0129008D0128008C012300900125
:101FE6002400900123008F0124008F0123008D011E
:101FF60024008D0123008C010800413443345434FD
:10200600413443344B340034463452344C34533424
:10201600003441345034503400344934533452344B
:10202600003453345434533400344F344B34003476
:042036002E34003410
:020000040001F9
:04000E00A2C9FFDDA7
:00000001FF
